{
  "_format": "hh-sol-artifact-1",
  "contractName": "ContractTemplates",
  "sourceName": "contracts/ContractTemplates.sol",
  "abi": [
    {
      "inputs": [],
      "stateMutability": "nonpayable",
      "type": "constructor"
    },
    {
      "inputs": [
        {
          "internalType": "address",
          "name": "owner",
          "type": "address"
        }
      ],
      "name": "OwnableInvalidOwner",
      "type": "error"
    },
    {
      "inputs": [
        {
          "internalType": "address",
          "name": "account",
          "type": "address"
        }
      ],
      "name": "OwnableUnauthorizedAccount",
      "type": "error"
    },
    {
      "inputs": [],
      "name": "ReentrancyGuardReentrantCall",
      "type": "error"
    },
    {
      "anonymous": false,
      "inputs": [
        {
          "indexed": true,
          "internalType": "address",
          "name": "contractAddress",
          "type": "address"
        },
        {
          "indexed": false,
          "internalType": "address[]",
          "name": "owners",
          "type": "address[]"
        }
      ],
      "name": "MultiSigDeployed",
      "type": "event"
    },
    {
      "anonymous": false,
      "inputs": [
        {
          "indexed": true,
          "internalType": "address",
          "name": "previousOwner",
          "type": "address"
        },
        {
          "indexed": true,
          "internalType": "address",
          "name": "newOwner",
          "type": "address"
        }
      ],
      "name": "OwnershipTransferred",
      "type": "event"
    },
    {
      "anonymous": false,
      "inputs": [
        {
          "indexed": true,
          "internalType": "address",
          "name": "contractAddress",
          "type": "address"
        },
        {
          "indexed": true,
          "internalType": "address",
          "name": "owner",
          "type": "address"
        }
      ],
      "name": "StakingContractDeployed",
      "type": "event"
    },
    {
      "anonymous": false,
      "inputs": [
        {
          "indexed": true,
          "internalType": "address",
          "name": "contractAddress",
          "type": "address"
        },
        {
          "indexed": true,
          "internalType": "address",
          "name": "beneficiary",
          "type": "address"
        }
      ],
      "name": "VestingContractDeployed",
      "type": "event"
    },
    {
      "inputs": [
        {
          "internalType": "address[]",
          "name": "owners",
          "type": "address[]"
        },
        {
          "internalType": "uint256",
          "name": "requiredSignatures",
          "type": "uint256"
        }
      ],
      "name": "deployMultiSigWallet",
      "outputs": [
        {
          "internalType": "address",
          "name": "contractAddress",
          "type": "address"
        }
      ],
      "stateMutability": "nonpayable",
      "type": "function"
    },
    {
      "inputs": [
        {
          "internalType": "address",
          "name": "stakingToken",
          "type": "address"
        },
        {
          "internalType": "address",
          "name": "rewardToken",
          "type": "address"
        },
        {
          "internalType": "uint256",
          "name": "rewardRate",
          "type": "uint256"
        }
      ],
      "name": "deployStakingContract",
      "outputs": [
        {
          "internalType": "address",
          "name": "contractAddress",
          "type": "address"
        }
      ],
      "stateMutability": "nonpayable",
      "type": "function"
    },
    {
      "inputs": [
        {
          "internalType": "address",
          "name": "token",
          "type": "address"
        },
        {
          "internalType": "address",
          "name": "beneficiary",
          "type": "address"
        },
        {
          "internalType": "uint256",
          "name": "totalAmount",
          "type": "uint256"
        },
        {
          "internalType": "uint256",
          "name": "startTime",
          "type": "uint256"
        },
        {
          "internalType": "uint256",
          "name": "duration",
          "type": "uint256"
        }
      ],
      "name": "deployVestingContract",
      "outputs": [
        {
          "internalType": "address",
          "name": "contractAddress",
          "type": "address"
        }
      ],
      "stateMutability": "nonpayable",
      "type": "function"
    },
    {
      "inputs": [],
      "name": "owner",
      "outputs": [
        {
          "internalType": "address",
          "name": "",
          "type": "address"
        }
      ],
      "stateMutability": "view",
      "type": "function"
    },
    {
      "inputs": [],
      "name": "renounceOwnership",
      "outputs": [],
      "stateMutability": "nonpayable",
      "type": "function"
    },
    {
      "inputs": [
        {
          "internalType": "address",
          "name": "newOwner",
          "type": "address"
        }
      ],
      "name": "transferOwnership",
      "outputs": [],
      "stateMutability": "nonpayable",
      "type": "function"
    }
  ],
  "bytecode": "0x608060405234801561001057600080fd5b50338061003757604051631e4fbdf760e01b81526000600482015260240160405180910390fd5b6100408161004a565b506001805561009a565b600080546001600160a01b038381166001600160a01b0319831681178455604051919092169283917f8be0079c531659141344cd1fd0a4f28419497f9722a3daafe3b4186f6b6457e09190a35050565b6132df806100a96000396000f3fe60806040523480156200001157600080fd5b50600436106200006a5760003560e01c80634115c92d146200006f578063715018a614620000a25780638da5cb5b14620000ae578063c057b57414620000c0578063d53e091b14620000d7578063f2fde38b14620000ee575b600080fd5b620000866200008036600462000823565b62000105565b6040516001600160a01b03909116815260200160405180910390f35b620000ac620002b9565b005b6000546001600160a01b031662000086565b62000086620000d136600462000864565b620002d1565b62000086620000e8366004620008cc565b6200052b565b620000ac620000ff366004620009a5565b620006ee565b60006200011162000732565b6001600160a01b038416620001655760405162461bcd60e51b815260206004820152601560248201527424b73b30b634b21039ba30b5b4b733903a37b5b2b760591b60448201526064015b60405180910390fd5b6001600160a01b038316620001b45760405162461bcd60e51b815260206004820152601460248201527324b73b30b634b2103932bbb0b932103a37b5b2b760611b60448201526064016200015c565b60008211620002115760405162461bcd60e51b815260206004820152602260248201527f5265776172642072617465206d7573742062652067726561746572207468616e604482015261020360f41b60648201526084016200015c565b6000848484336040516200022590620007dc565b6001600160a01b039485168152928416602084015260408301919091529091166060820152608001604051809103906000f0801580156200026a573d6000803e3d6000fd5b5060405190925082915033906001600160a01b038316907fb33ca3007e6963e931eb002c84c2de907193c5e7d89466074057939fedda2c8a90600090a350620002b260018055565b9392505050565b620002c36200075d565b620002cf60006200078c565b565b6000620002dd62000732565b6001600160a01b038616620003255760405162461bcd60e51b815260206004820152600d60248201526c24b73b30b634b2103a37b5b2b760991b60448201526064016200015c565b6001600160a01b038516620003735760405162461bcd60e51b8152602060048201526013602482015272496e76616c69642062656e656669636961727960681b60448201526064016200015c565b60008411620003d15760405162461bcd60e51b815260206004820152602360248201527f546f74616c20616d6f756e74206d75737420626520677265617465722074686160448201526206e20360ec1b60648201526084016200015c565b428311620004225760405162461bcd60e51b815260206004820181905260248201527f53746172742074696d65206d75737420626520696e207468652066757475726560448201526064016200015c565b60008211620004745760405162461bcd60e51b815260206004820152601f60248201527f4475726174696f6e206d7573742062652067726561746572207468616e20300060448201526064016200015c565b600086868686866040516200048990620007ea565b6001600160a01b03958616815294909316602085015260408401919091526060830152608082015260a001604051809103906000f080158015620004d1573d6000803e3d6000fd5b509050809150856001600160a01b0316826001600160a01b03167f739fe22b8edefd6ce1fe32460f9cd54bf8e66fc7447f4c8a8131ce078a1988af60405160405180910390a3506200052260018055565b95945050505050565b60006200053762000732565b60008351116200058a5760405162461bcd60e51b815260206004820152601c60248201527f4f776e6572732061727261792063616e6e6f7420626520656d7074790000000060448201526064016200015c565b60008211620005ef5760405162461bcd60e51b815260206004820152602a60248201527f5265717569726564207369676e617475726573206d75737420626520677265616044820152690746572207468616e20360b41b60648201526084016200015c565b8251821115620006585760405162461bcd60e51b815260206004820152602d60248201527f5265717569726564207369676e6174757265732063616e6e6f7420657863656560448201526c19081bdddb995c8818dbdd5b9d609a1b60648201526084016200015c565b600083836040516200066a90620007f8565b6200067792919062000a09565b604051809103906000f08015801562000694573d6000803e3d6000fd5b509050809150816001600160a01b03167f05eaf7382b122fb5f72db0ea2d1b09bfb4b5c3dc8cbff6ce35cd7c6316c72bc085604051620006d5919062000a2d565b60405180910390a250620006e860018055565b92915050565b620006f86200075d565b6001600160a01b0381166200072457604051631e4fbdf760e01b8152600060048201526024016200015c565b6200072f816200078c565b50565b6002600154036200075657604051633ee5aeb560e01b815260040160405180910390fd5b6002600155565b6000546001600160a01b03163314620002cf5760405163118cdaa760e01b81523360048201526024016200015c565b600080546001600160a01b038381166001600160a01b0319831681178455604051919092169283917f8be0079c531659141344cd1fd0a4f28419497f9722a3daafe3b4186f6b6457e09190a35050565b610ae68062000a4383390190565b61074e806200152983390190565b6116338062001c7783390190565b80356001600160a01b03811681146200081e57600080fd5b919050565b6000806000606084860312156200083957600080fd5b620008448462000806565b9250620008546020850162000806565b9150604084013590509250925092565b600080600080600060a086880312156200087d57600080fd5b620008888662000806565b9450620008986020870162000806565b94979496505050506040830135926060810135926080909101359150565b634e487b7160e01b600052604160045260246000fd5b60008060408385031215620008e057600080fd5b823567ffffffffffffffff80821115620008f957600080fd5b818501915085601f8301126200090e57600080fd5b8135602082821115620009255762000925620008b6565b8160051b604051601f19603f830116810181811086821117156200094d576200094d620008b6565b6040529283528183019350848101820192898411156200096c57600080fd5b948201945b838610156200099557620009858662000806565b8552948201949382019362000971565b9997909101359750505050505050565b600060208284031215620009b857600080fd5b620002b28262000806565b600081518084526020808501945080840160005b83811015620009fe5781516001600160a01b031687529582019590820190600101620009d7565b509495945050505050565b60408152600062000a1e6040830185620009c3565b90508260208301529392505050565b602081526000620002b26020830184620009c356fe608060405234801561001057600080fd5b50604051610ae6380380610ae683398101604081905261002f91610118565b6001600055806001600160a01b03811661006357604051631e4fbdf760e01b81526000600482015260240160405180910390fd5b61006c816100aa565b5050600280546001600160a01b039485166001600160a01b031991821617909155600380549390941692169190911790915560045542600655610165565b600180546001600160a01b038381166001600160a01b0319831681179093556040519116919082907f8be0079c531659141344cd1fd0a4f28419497f9722a3daafe3b4186f6b6457e090600090a35050565b80516001600160a01b038116811461011357600080fd5b919050565b6000806000806080858703121561012e57600080fd5b610137856100fc565b9350610145602086016100fc565b92506040850151915061015a606086016100fc565b905092959194509250565b610972806101746000396000f3fe608060405234801561001057600080fd5b506004361061010a5760003560e01c80638b876347116100a2578063c8f33c9111610071578063c8f33c911461021b578063cd3daf9d14610224578063df136d651461022c578063f2fde38b14610235578063f7c618c11461024857600080fd5b80638b876347146101b75780638da5cb5b146101d7578063a694fc3a146101e8578063acc3a939146101fb57600080fd5b8063715018a6116100de578063715018a61461017257806372f702f31461017a5780637b0a47ee146101a5578063817b1cd2146101ae57600080fd5b80628cc2621461010f5780630700037d146101355780632e1a7d4d146101555780633d18b9121461016a575b600080fd5b61012261011d36600461085c565b61025b565b6040519081526020015b60405180910390f35b61012261014336600461085c565b600a6020526000908152604090205481565b61016861016336600461088c565b6102d8565b005b610168610485565b610168610578565b60025461018d906001600160a01b031681565b6040516001600160a01b03909116815260200161012c565b61012260045481565b61012260055481565b6101226101c536600461085c565b60096020526000908152604090205481565b6001546001600160a01b031661018d565b6101686101f636600461088c565b61058a565b61012261020936600461085c565b60086020526000908152604090205481565b61012260065481565b6101226106c5565b61012260075481565b61016861024336600461085c565b610723565b60035461018d906001600160a01b031681565b6001600160a01b0381166000908152600a60209081526040808320546009909252822054670de0b6b3a7640000906102916106c5565b61029b91906108bb565b6001600160a01b0385166000908152600860205260409020546102be91906108ce565b6102c891906108e5565b6102d29190610907565b92915050565b6102e061075e565b600081116103295760405162461bcd60e51b8152602060048201526011602482015270043616e6e6f74207769746864726177203607c1b60448201526064015b60405180910390fd5b336000908152600860205260409020548111156103885760405162461bcd60e51b815260206004820152601a60248201527f496e73756666696369656e74207374616b656420616d6f756e740000000000006044820152606401610320565b61039133610788565b80600560008282546103a391906108bb565b909155505033600090815260086020526040812080548392906103c79084906108bb565b909155505060025460405163a9059cbb60e01b8152336004820152602481018390526001600160a01b039091169063a9059cbb906044016020604051808303816000875af115801561041d573d6000803e3d6000fd5b505050506040513d601f19601f82011682018060405250810190610441919061091a565b5060405181815233907f7084f5476618d8e60b11ef0d7d3f06914655adb8793e28ff7f018d4c76d505d5906020015b60405180910390a26104826001600055565b50565b61048d61075e565b61049633610788565b336000908152600a6020526040902054801561056b57336000818152600a602052604080822091909155600354905163a9059cbb60e01b81526004810192909252602482018390526001600160a01b03169063a9059cbb906044016020604051808303816000875af1158015610510573d6000803e3d6000fd5b505050506040513d601f19601f82011682018060405250810190610534919061091a565b5060405181815233907fe2403640ba68fed3a2f88b7557551d1993f84b99bb10ff833f0cf8db0c5e04869060200160405180910390a25b506105766001600055565b565b6105806107dd565b610576600061080a565b61059261075e565b600081116105d35760405162461bcd60e51b815260206004820152600e60248201526d043616e6e6f74207374616b6520360941b6044820152606401610320565b6105dc33610788565b80600560008282546105ee9190610907565b90915550503360009081526008602052604081208054839290610612908490610907565b90915550506002546040516323b872dd60e01b8152336004820152306024820152604481018390526001600160a01b03909116906323b872dd906064016020604051808303816000875af115801561066e573d6000803e3d6000fd5b505050506040513d601f19601f82011682018060405250810190610692919061091a565b5060405181815233907f9e71bc8eea02a63969f509818f2dafb9254532904319f9dbda79b67bd34a5f3d90602001610470565b60006005546000036106d8575060075490565b6005546004546006546106eb90426108bb565b6106f591906108ce565b61070790670de0b6b3a76400006108ce565b61071191906108e5565b60075461071e9190610907565b905090565b61072b6107dd565b6001600160a01b03811661075557604051631e4fbdf760e01b815260006004820152602401610320565b6104828161080a565b60026000540361078157604051633ee5aeb560e01b815260040160405180910390fd5b6002600055565b6107906106c5565b600755426006556001600160a01b03811615610482576107af8161025b565b6001600160a01b0382166000908152600a602090815260408083209390935560075460099091529190205550565b6001546001600160a01b031633146105765760405163118cdaa760e01b8152336004820152602401610320565b600180546001600160a01b038381166001600160a01b0319831681179093556040519116919082907f8be0079c531659141344cd1fd0a4f28419497f9722a3daafe3b4186f6b6457e090600090a35050565b60006020828403121561086e57600080fd5b81356001600160a01b038116811461088557600080fd5b9392505050565b60006020828403121561089e57600080fd5b5035919050565b634e487b7160e01b600052601160045260246000fd5b818103818111156102d2576102d26108a5565b80820281158282048414176102d2576102d26108a5565b60008261090257634e487b7160e01b600052601260045260246000fd5b500490565b808201808211156102d2576102d26108a5565b60006020828403121561092c57600080fd5b8151801515811461088557600080fdfea26469706673582212208dc6476438fa348dd9bc429b71f845f23413d6fe0912eb0b537ae5b55595b18964736f6c63430008140033608060405234801561001057600080fd5b5060405161074e38038061074e83398101604081905261002f9161010c565b338061005557604051631e4fbdf760e01b81526000600482015260240160405180910390fd5b61005e816100a0565b50600180546001600160a01b039687166001600160a01b031991821617909155600280549590961694169390931790935560035560049190915560055561015a565b600080546001600160a01b038381166001600160a01b0319831681178455604051919092169283917f8be0079c531659141344cd1fd0a4f28419497f9722a3daafe3b4186f6b6457e09190a35050565b80516001600160a01b038116811461010757600080fd5b919050565b600080600080600060a0868803121561012457600080fd5b61012d866100f0565b945061013b602087016100f0565b6040870151606088015160809098015196999198509695945092505050565b6105e5806101696000396000f3fe608060405234801561001057600080fd5b50600436106100cf5760003560e01c806378e979251161008c57806396132521116100665780639613252114610160578063dc25a30014610169578063f2fde38b146101a8578063fc0c546a146101bb57600080fd5b806378e979251461013e57806386d1a69f146101475780638da5cb5b1461014f57600080fd5b80630fb5a6b4146100d45780631a39d8ef146100f057806338af3eed146100f957806344b1231f146101245780635b9400811461012c578063715018a614610134575b600080fd5b6100dd60055481565b6040519081526020015b60405180910390f35b6100dd60035481565b60025461010c906001600160a01b031681565b6040516001600160a01b0390911681526020016100e7565b6100dd6101ce565b6100dd610229565b61013c610240565b005b6100dd60045481565b61013c610254565b6000546001600160a01b031661010c565b6100dd60065481565b6101716103e1565b604080516001600160a01b0390971687526020870195909552938501929092526060840152608083015260a082015260c0016100e7565b61013c6101b63660046104e2565b610427565b60015461010c906001600160a01b031681565b60006004544210156101e05750600090565b6005546004546101f09190610528565b42106101fd575060035490565b60055460045461020d9042610541565b60035461021a9190610554565b610224919061056b565b905090565b60006006546102366101ce565b6102249190610541565b610248610465565b6102526000610492565b565b6004544210156102ab5760405162461bcd60e51b815260206004820152601760248201527f56657374696e6720686173206e6f74207374617274656400000000000000000060448201526064015b60405180910390fd5b60006006546102b86101ce565b6102c29190610541565b90506000811161030b5760405162461bcd60e51b81526020600482015260146024820152734e6f20746f6b656e7320746f2072656c6561736560601b60448201526064016102a2565b806006600082825461031d9190610528565b909155505060015460025460405163a9059cbb60e01b81526001600160a01b0391821660048201526024810184905291169063a9059cbb906044016020604051808303816000875af1158015610377573d6000803e3d6000fd5b505050506040513d601f19601f8201168201806040525081019061039b919061058d565b506002546040518281526001600160a01b03909116907fc7798891864187665ac6dd119286e44ec13f014527aeeb2b8eb3fd413df931799060200160405180910390a250565b600080600080600080600260009054906101000a90046001600160a01b03166003546004546005546006546104146101ce565b949b939a50919850965094509092509050565b61042f610465565b6001600160a01b03811661045957604051631e4fbdf760e01b8152600060048201526024016102a2565b61046281610492565b50565b6000546001600160a01b031633146102525760405163118cdaa760e01b81523360048201526024016102a2565b600080546001600160a01b038381166001600160a01b0319831681178455604051919092169283917f8be0079c531659141344cd1fd0a4f28419497f9722a3daafe3b4186f6b6457e09190a35050565b6000602082840312156104f457600080fd5b81356001600160a01b038116811461050b57600080fd5b9392505050565b634e487b7160e01b600052601160045260246000fd5b8082018082111561053b5761053b610512565b92915050565b8181038181111561053b5761053b610512565b808202811582820484141761053b5761053b610512565b60008261058857634e487b7160e01b600052601260045260246000fd5b500490565b60006020828403121561059f57600080fd5b8151801515811461050b57600080fdfea2646970667358221220640fcdee94cf7ab60ce1da4ab4195fc0a8b4d55861d1b5344eb545d640c0a51764736f6c6343000814003360806040523480156200001157600080fd5b5060405162001633380380620016338339810160408190526200003491620002f2565b33806200005c57604051631e4fbdf760e01b8152600060048201526024015b60405180910390fd5b62000067816200026f565b506000825111620000ad5760405162461bcd60e51b815260206004820152600f60248201526e13dddb995c9cc81c995c5d5a5c9959608a1b604482015260640162000053565b600081118015620000bf575081518111155b6200010d5760405162461bcd60e51b815260206004820152601b60248201527f496e76616c6964207265717569726564207369676e6174757265730000000000604482015260640162000053565b60005b825181101562000264576000838281518110620001315762000131620003cc565b6020026020010151905060006001600160a01b0316816001600160a01b0316036200018f5760405162461bcd60e51b815260206004820152600d60248201526c24b73b30b634b21037bbb732b960991b604482015260640162000053565b6001600160a01b03811660009081526001602052604090205460ff1615620001ed5760405162461bcd60e51b815260206004820152601060248201526f4f776e6572206e6f7420756e6971756560801b604482015260640162000053565b6001600160a01b031660008181526001602081905260408220805460ff1916821790556002805491820181559091527f405787fa12a823e0f2b7631cc41b3ba8828b3321ca811111fa75cd3aa3bb5ace0180546001600160a01b0319169091179055806200025b81620003e2565b91505062000110565b50600355506200040a565b600080546001600160a01b038381166001600160a01b0319831681178455604051919092169283917f8be0079c531659141344cd1fd0a4f28419497f9722a3daafe3b4186f6b6457e09190a35050565b634e487b7160e01b600052604160045260246000fd5b80516001600160a01b0381168114620002ed57600080fd5b919050565b600080604083850312156200030657600080fd5b82516001600160401b03808211156200031e57600080fd5b818501915085601f8301126200033357600080fd5b81516020828211156200034a576200034a620002bf565b8160051b604051601f19603f83011681018181108682111715620003725762000372620002bf565b6040529283528183019350848101820192898411156200039157600080fd5b948201945b83861015620003ba57620003aa86620002d5565b8552948201949382019362000396565b97909101519698969750505050505050565b634e487b7160e01b600052603260045260246000fd5b6000600182016200040357634e487b7160e01b600052601160045260246000fd5b5060010190565b611219806200041a6000396000f3fe6080604052600436106100ec5760003560e01c80638d0680431161008a578063c01a8c8411610059578063c01a8c84146102ad578063c6427474146102cd578063ee22610b146102ed578063f2fde38b1461030d57600080fd5b80638d068043146102375780638da5cb5b1461024d5780639ace38c21461026b578063a0e67e2b1461028b57600080fd5b80632f54bf6e116100c65780632f54bf6e1461017657806333ea3dc8146101b6578063715018a6146101e757806380f59a65146101fc57600080fd5b8063025e7c27146100f857806320ea8d86146101355780632e7700f01461015757600080fd5b366100f357005b600080fd5b34801561010457600080fd5b50610118610113366004610d08565b61032d565b6040516001600160a01b0390911681526020015b60405180910390f35b34801561014157600080fd5b50610155610150366004610d08565b610357565b005b34801561016357600080fd5b506005545b60405190815260200161012c565b34801561018257600080fd5b506101a6610191366004610d3d565b60016020526000908152604090205460ff1681565b604051901515815260200161012c565b3480156101c257600080fd5b506101d66101d1366004610d08565b6104f2565b60405161012c959493929190610d5f565b3480156101f357600080fd5b506101556105ed565b34801561020857600080fd5b506101a6610217366004610dda565b600460209081526000928352604080842090915290825290205460ff1681565b34801561024357600080fd5b5061016860035481565b34801561025957600080fd5b506000546001600160a01b0316610118565b34801561027757600080fd5b506101d6610286366004610d08565b610601565b34801561029757600080fd5b506102a06106da565b60405161012c9190610e06565b3480156102b957600080fd5b506101556102c8366004610d08565b61073c565b3480156102d957600080fd5b506101686102e8366004610e53565b6108d6565b3480156102f957600080fd5b50610155610308366004610d08565b610a3a565b34801561031957600080fd5b50610155610328366004610d3d565b610c4d565b6002818154811061033d57600080fd5b6000918252602090912001546001600160a01b0316905081565b3360009081526001602052604090205460ff1661038f5760405162461bcd60e51b815260040161038690610eda565b60405180910390fd5b600554819081106103b25760405162461bcd60e51b815260040161038690610f00565b81600581815481106103c6576103c6610f37565b600091825260209091206003600590920201015460ff16156103fa5760405162461bcd60e51b815260040161038690610f4d565b60006005848154811061040f5761040f610f37565b600091825260208083208784526004825260408085203386529092529220546005909102909101915060ff166104875760405162461bcd60e51b815260206004820152601d60248201527f5472616e73616374696f6e20616c726561647920636f6e6669726d65640000006044820152606401610386565b600181600401600082825461049c9190610f9a565b90915550506000848152600460209081526040808320338085529252808320805460ff1916905551909186917f4cd471041f6b9ff47536a54a3d3ab62d0fa9dd5e36c0418b294b1673acb318819190a350505050565b600080606060008060006005878154811061050f5761050f610f37565b6000918252602090912060059091020180546001820154600383015460048401546002850180549596506001600160a01b039094169492939260ff90921691839061055990610fb3565b80601f016020809104026020016040519081016040528092919081815260200182805461058590610fb3565b80156105d25780601f106105a7576101008083540402835291602001916105d2565b820191906000526020600020905b8154815290600101906020018083116105b557829003601f168201915b50505050509250955095509550955095505091939590929450565b6105f5610c8b565b6105ff6000610cb8565b565b6005818154811061061157600080fd5b60009182526020909120600590910201805460018201546002830180546001600160a01b03909316945090929161064790610fb3565b80601f016020809104026020016040519081016040528092919081815260200182805461067390610fb3565b80156106c05780601f10610695576101008083540402835291602001916106c0565b820191906000526020600020905b8154815290600101906020018083116106a357829003601f168201915b505050506003830154600490930154919260ff1691905085565b6060600280548060200260200160405190810160405280929190818152602001828054801561073257602002820191906000526020600020905b81546001600160a01b03168152600190910190602001808311610714575b5050505050905090565b3360009081526001602052604090205460ff1661076b5760405162461bcd60e51b815260040161038690610eda565b6005548190811061078e5760405162461bcd60e51b815260040161038690610f00565b81600581815481106107a2576107a2610f37565b600091825260209091206003600590920201015460ff16156107d65760405162461bcd60e51b815260040161038690610f4d565b6000838152600460209081526040808320338452909152902054839060ff16156108425760405162461bcd60e51b815260206004820152601d60248201527f5472616e73616374696f6e20616c726561647920636f6e6669726d65640000006044820152606401610386565b60006005858154811061085757610857610f37565b90600052602060002090600502019050600181600401600082825461087c9190610fed565b90915550506000858152600460209081526040808320338085529252808320805460ff1916600117905551909187917f15c2f311c9e0f53b50388279894aeff029a3457884a6601e924fca879e12adcc9190a35050505050565b3360009081526001602052604081205460ff166109055760405162461bcd60e51b815260040161038690610eda565b600580549050905060056040518060a00160405280876001600160a01b0316815260200186815260200185858080601f01602080910402602001604051908101604052809392919081815260200183838082843760009201829052509385525050506020808301829052604092830182905284546001808201875595835291819020845160059093020180546001600160a01b0319166001600160a01b039093169290921782558301519381019390935581015190919060028201906109cb9082611065565b50606082015160038201805460ff1916911515919091179055608090910151600490910155604051339082907f2ecf8c4571be1f8a0b1e6feaa711128f3f8038e97869aa59d0f595e21f50eaa090610a2a908990899089908990611125565b60405180910390a3949350505050565b3360009081526001602052604090205460ff16610a695760405162461bcd60e51b815260040161038690610eda565b60055481908110610a8c5760405162461bcd60e51b815260040161038690610f00565b8160058181548110610aa057610aa0610f37565b600091825260209091206003600590920201015460ff1615610ad45760405162461bcd60e51b815260040161038690610f4d565b600060058481548110610ae957610ae9610f37565b9060005260206000209060050201905060035481600401541015610b4f5760405162461bcd60e51b815260206004820152601a60248201527f43616e6e6f742065786563757465207472616e73616374696f6e0000000000006044820152606401610386565b60038101805460ff191660019081179091558154908201546040516000926001600160a01b03169190610b8690600286019061116d565b60006040518083038185875af1925050503d8060008114610bc3576040519150601f19603f3d011682016040523d82523d6000602084013e610bc8565b606091505b5050905080610c195760405162461bcd60e51b815260206004820152601c60248201527f5472616e73616374696f6e20657865637574696f6e206661696c6564000000006044820152606401610386565b604051339086907fefc13bdcf58f184ea7cae26b499fb33b539e01d0197cea456f3ada289b8cf19b90600090a35050505050565b610c55610c8b565b6001600160a01b038116610c7f57604051631e4fbdf760e01b815260006004820152602401610386565b610c8881610cb8565b50565b6000546001600160a01b031633146105ff5760405163118cdaa760e01b8152336004820152602401610386565b600080546001600160a01b038381166001600160a01b0319831681178455604051919092169283917f8be0079c531659141344cd1fd0a4f28419497f9722a3daafe3b4186f6b6457e09190a35050565b600060208284031215610d1a57600080fd5b5035919050565b80356001600160a01b0381168114610d3857600080fd5b919050565b600060208284031215610d4f57600080fd5b610d5882610d21565b9392505050565b60018060a01b038616815260006020868184015260a0604084015285518060a085015260005b81811015610da15787810183015185820160c001528201610d85565b50600060c0828601015260c0601f19601f83011685010192505050610dca606083018515159052565b8260808301529695505050505050565b60008060408385031215610ded57600080fd5b82359150610dfd60208401610d21565b90509250929050565b6020808252825182820181905260009190848201906040850190845b81811015610e475783516001600160a01b031683529284019291840191600101610e22565b50909695505050505050565b60008060008060608587031215610e6957600080fd5b610e7285610d21565b935060208501359250604085013567ffffffffffffffff80821115610e9657600080fd5b818701915087601f830112610eaa57600080fd5b813581811115610eb957600080fd5b886020828501011115610ecb57600080fd5b95989497505060200194505050565b6020808252600c908201526b2737ba1030b71037bbb732b960a11b604082015260600190565b6020808252601a908201527f5472616e73616374696f6e20646f6573206e6f74206578697374000000000000604082015260600190565b634e487b7160e01b600052603260045260246000fd5b6020808252601c908201527f5472616e73616374696f6e20616c726561647920657865637574656400000000604082015260600190565b634e487b7160e01b600052601160045260246000fd5b81810381811115610fad57610fad610f84565b92915050565b600181811c90821680610fc757607f821691505b602082108103610fe757634e487b7160e01b600052602260045260246000fd5b50919050565b80820180821115610fad57610fad610f84565b634e487b7160e01b600052604160045260246000fd5b601f82111561106057600081815260208120601f850160051c8101602086101561103d5750805b601f850160051c820191505b8181101561105c57828155600101611049565b5050505b505050565b815167ffffffffffffffff81111561107f5761107f611000565b6110938161108d8454610fb3565b84611016565b602080601f8311600181146110c857600084156110b05750858301515b600019600386901b1c1916600185901b17855561105c565b600085815260208120601f198616915b828110156110f7578886015182559484019460019091019084016110d8565b50858210156111155787850151600019600388901b60f8161c191681555b5050505050600190811b01905550565b6001600160a01b0385168152602081018490526060604082018190528101829052818360808301376000818301608090810191909152601f909201601f191601019392505050565b600080835461117b81610fb3565b6001828116801561119357600181146111a8576111d7565b60ff19841687528215158302870194506111d7565b8760005260208060002060005b858110156111ce5781548a8201529084019082016111b5565b50505082870194505b5092969550505050505056fea2646970667358221220aabfcf1db38287dfca7786c0d335f2c723414504b3db5a96a25cb80bc440c30d64736f6c63430008140033a2646970667358221220605c2c05b0b91b0e3ddcf8d43d5060223a08472adaf0a70c9befe0b6dddbfd2f64736f6c63430008140033",
  "linkReferences": {},
  "deployedLinkReferences": {}
}