{
  "_format": "hh-sol-artifact-1",
  "contractName": "ContractAnalyzer",
  "sourceName": "contracts/ContractAnalyzer.sol",
  "abi": [
    {
      "inputs": [],
      "stateMutability": "nonpayable",
      "type": "constructor"
    },
    {
      "inputs": [
        {
          "internalType": "address",
          "name": "owner",
          "type": "address"
        }
      ],
      "name": "OwnableInvalidOwner",
      "type": "error"
    },
    {
      "inputs": [
        {
          "internalType": "address",
          "name": "account",
          "type": "address"
        }
      ],
      "name": "OwnableUnauthorizedAccount",
      "type": "error"
    },
    {
      "anonymous": false,
      "inputs": [
        {
          "indexed": true,
          "internalType": "address",
          "name": "contractAddress",
          "type": "address"
        },
        {
          "components": [
            {
              "internalType": "uint256",
              "name": "contractSize",
              "type": "uint256"
            },
            {
              "internalType": "uint256",
              "name": "estimatedDeploymentGas",
              "type": "uint256"
            },
            {
              "internalType": "bool",
              "name": "isContract",
              "type": "bool"
            },
            {
              "internalType": "bool",
              "name": "hasFallback",
              "type": "bool"
            },
            {
              "internalType": "bool",
              "name": "hasReceive",
              "type": "bool"
            },
            {
              "internalType": "uint256",
              "name": "balance",
              "type": "uint256"
            },
            {
              "internalType": "uint256",
              "name": "codeSize",
              "type": "uint256"
            }
          ],
          "indexed": false,
          "internalType": "struct ContractAnalyzer.ContractAnalysis",
          "name": "analysis",
          "type": "tuple"
        }
      ],
      "name": "ContractAnalyzed",
      "type": "event"
    },
    {
      "anonymous": false,
      "inputs": [
        {
          "indexed": true,
          "internalType": "address",
          "name": "contractAddress",
          "type": "address"
        },
        {
          "indexed": false,
          "internalType": "bytes4",
          "name": "functionSelector",
          "type": "bytes4"
        },
        {
          "components": [
            {
              "internalType": "uint256",
              "name": "estimatedGas",
              "type": "uint256"
            },
            {
              "internalType": "uint256",
              "name": "gasPrice",
              "type": "uint256"
            },
            {
              "internalType": "uint256",
              "name": "totalCost",
              "type": "uint256"
            },
            {
              "internalType": "bool",
              "name": "success",
              "type": "bool"
            },
            {
              "internalType": "string",
              "name": "errorMessage",
              "type": "string"
            }
          ],
          "indexed": false,
          "internalType": "struct ContractAnalyzer.GasEstimate",
          "name": "estimate",
          "type": "tuple"
        }
      ],
      "name": "GasEstimated",
      "type": "event"
    },
    {
      "anonymous": false,
      "inputs": [
        {
          "indexed": true,
          "internalType": "address",
          "name": "previousOwner",
          "type": "address"
        },
        {
          "indexed": true,
          "internalType": "address",
          "name": "newOwner",
          "type": "address"
        }
      ],
      "name": "OwnershipTransferred",
      "type": "event"
    },
    {
      "inputs": [
        {
          "internalType": "address",
          "name": "contractAddress",
          "type": "address"
        }
      ],
      "name": "analyzeContract",
      "outputs": [
        {
          "components": [
            {
              "internalType": "uint256",
              "name": "contractSize",
              "type": "uint256"
            },
            {
              "internalType": "uint256",
              "name": "estimatedDeploymentGas",
              "type": "uint256"
            },
            {
              "internalType": "bool",
              "name": "isContract",
              "type": "bool"
            },
            {
              "internalType": "bool",
              "name": "hasFallback",
              "type": "bool"
            },
            {
              "internalType": "bool",
              "name": "hasReceive",
              "type": "bool"
            },
            {
              "internalType": "uint256",
              "name": "balance",
              "type": "uint256"
            },
            {
              "internalType": "uint256",
              "name": "codeSize",
              "type": "uint256"
            }
          ],
          "internalType": "struct ContractAnalyzer.ContractAnalysis",
          "name": "analysis",
          "type": "tuple"
        }
      ],
      "stateMutability": "nonpayable",
      "type": "function"
    },
    {
      "inputs": [
        {
          "internalType": "uint256",
          "name": "codeSize",
          "type": "uint256"
        },
        {
          "internalType": "uint256",
          "name": "gasPrice",
          "type": "uint256"
        }
      ],
      "name": "calculateDeploymentCost",
      "outputs": [
        {
          "internalType": "uint256",
          "name": "deploymentCost",
          "type": "uint256"
        }
      ],
      "stateMutability": "pure",
      "type": "function"
    },
    {
      "inputs": [
        {
          "internalType": "address",
          "name": "contractAddress",
          "type": "address"
        },
        {
          "internalType": "bytes4",
          "name": "functionSelector",
          "type": "bytes4"
        },
        {
          "internalType": "bytes",
          "name": "data",
          "type": "bytes"
        }
      ],
      "name": "estimateGas",
      "outputs": [
        {
          "components": [
            {
              "internalType": "uint256",
              "name": "estimatedGas",
              "type": "uint256"
            },
            {
              "internalType": "uint256",
              "name": "gasPrice",
              "type": "uint256"
            },
            {
              "internalType": "uint256",
              "name": "totalCost",
              "type": "uint256"
            },
            {
              "internalType": "bool",
              "name": "success",
              "type": "bool"
            },
            {
              "internalType": "string",
              "name": "errorMessage",
              "type": "string"
            }
          ],
          "internalType": "struct ContractAnalyzer.GasEstimate",
          "name": "estimate",
          "type": "tuple"
        }
      ],
      "stateMutability": "nonpayable",
      "type": "function"
    },
    {
      "inputs": [
        {
          "internalType": "address",
          "name": "contractAddress",
          "type": "address"
        },
        {
          "internalType": "bytes",
          "name": "data",
          "type": "bytes"
        }
      ],
      "name": "estimateGasCall",
      "outputs": [],
      "stateMutability": "view",
      "type": "function"
    },
    {
      "inputs": [
        {
          "internalType": "address",
          "name": "contractAddress",
          "type": "address"
        }
      ],
      "name": "getBasicInfo",
      "outputs": [
        {
          "internalType": "uint256",
          "name": "codeSize",
          "type": "uint256"
        },
        {
          "internalType": "uint256",
          "name": "balance",
          "type": "uint256"
        },
        {
          "internalType": "bool",
          "name": "isContract",
          "type": "bool"
        }
      ],
      "stateMutability": "view",
      "type": "function"
    },
    {
      "inputs": [
        {
          "internalType": "address",
          "name": "contractAddress",
          "type": "address"
        },
        {
          "internalType": "bytes4",
          "name": "functionSelector",
          "type": "bytes4"
        }
      ],
      "name": "hasFunction",
      "outputs": [
        {
          "internalType": "bool",
          "name": "hasFunction",
          "type": "bool"
        }
      ],
      "stateMutability": "view",
      "type": "function"
    },
    {
      "inputs": [],
      "name": "owner",
      "outputs": [
        {
          "internalType": "address",
          "name": "",
          "type": "address"
        }
      ],
      "stateMutability": "view",
      "type": "function"
    },
    {
      "inputs": [],
      "name": "renounceOwnership",
      "outputs": [],
      "stateMutability": "nonpayable",
      "type": "function"
    },
    {
      "inputs": [
        {
          "internalType": "address",
          "name": "newOwner",
          "type": "address"
        }
      ],
      "name": "transferOwnership",
      "outputs": [],
      "stateMutability": "nonpayable",
      "type": "function"
    }
  ],
  "bytecode": "0x608060405234801561001057600080fd5b50338061003757604051631e4fbdf760e01b81526000600482015260240160405180910390fd5b61004081610046565b50610096565b600080546001600160a01b038381166001600160a01b0319831681178455604051919092169283917f8be0079c531659141344cd1fd0a4f28419497f9722a3daafe3b4186f6b6457e09190a35050565b610c14806100a56000396000f3fe608060405234801561001057600080fd5b50600436106100935760003560e01c8063715018a611610066578063715018a6146101175780638da5cb5b1461011f57806394724e9a1461013a578063d401defe1461015d578063f2fde38b1461019d57600080fd5b8063387ba9ca14610098578063437fab7f146100c157806345424848146100d657806353fc1d3f146100f6575b600080fd5b6100ab6100a6366004610790565b6101b0565b6040516100b891906107b2565b60405180910390f35b6100d46100cf36600461084f565b610334565b005b6100e96100e43660046108ba565b6103e7565b6040516100b89190610996565b6101096101043660046109a9565b610641565b6040519081526020016100b8565b6100d4610678565b6000546040516001600160a01b0390911681526020016100b8565b61014d6101483660046109cb565b61068c565b60405190151581526020016100b8565b61018061016b366004610790565b6001600160a01b0316803b918131913b151590565b6040805193845260208401929092521515908201526060016100b8565b6100d46101ab366004610790565b6106b9565b6101f66040518060e00160405280600081526020016000815260200160001515815260200160001515815260200160001515815260200160008152602001600081525090565b6001600160a01b03821661024c5760405162461bcd60e51b8152602060048201526018602482015277496e76616c696420636f6e7472616374206164647265737360401b60448201526064015b60405180910390fd5b600080825260208201819052606082018190526080820181905260a0820181905260c08201526001600160a01b0382163b15801560408301526102ee576001600160a01b0382163b60c082018190526102a69060c8610a14565b6102b290615208610a2b565b60208201526001600160a01b038216803b15156060830152803b151560808301523160a082015260c08101516102eb9061040090610a3e565b81525b816001600160a01b03167fc92608e79dbaef0ffaef7f7e806e266503a4f08229a136e76836646a78cc22378260405161032791906107b2565b60405180910390a2919050565b6000836001600160a01b03168383604051610350929190610a60565b600060405180830381855afa9150503d806000811461038b576040519150601f19603f3d011682016040523d82523d6000602084013e610390565b606091505b50509050806103e15760405162461bcd60e51b815260206004820152601860248201527f46756e6374696f6e2063616c6c20776f756c64206661696c00000000000000006044820152606401610243565b50505050565b61041b6040518060a00160405280600081526020016000815260200160008152602001600015158152602001606081525090565b6001600160a01b03851661046c5760405162461bcd60e51b8152602060048201526018602482015277496e76616c696420636f6e7472616374206164647265737360401b6044820152606401610243565b6000856001600160a01b03163b116104c65760405162461bcd60e51b815260206004820152601960248201527f41646472657373206973206e6f74206120636f6e7472616374000000000000006044820152606401610243565b600080825260208083018290526040808401839052606084018390528051918201815291815260808301525163437fab7f60e01b8152309063437fab7f90629896809061051b90899088908890600401610a70565b60006040518083038187803b15801561053357600080fd5b5086fa93505050508015610545575060015b6105d157610551610ab0565b806308c379a0036105945750610565610b07565b806105705750610596565b600060608301819052608083019190915280825248602083015260408201526105f6565b505b60006060808301919091526040805191820190526023808252610bbc60208301396080820152600080825248602083015260408201526105f6565b600160608201526298968080825248602083018190526105f091610a14565b60408201525b846001600160a01b03167f2a0605f7ab340472bde03d75029167d0cf51462ebd2ff1fbaececdeb1c731f388583604051610631929190610b91565b60405180910390a2949350505050565b6000615208816106528560c8610a14565b905060006106608284610a2b565b905061066c8582610a14565b93505050505b92915050565b6106806106f7565b61068a6000610724565b565b6000826001600160a01b03163b6000036106a857506000610672565b50506001600160a01b03163b151590565b6106c16106f7565b6001600160a01b0381166106eb57604051631e4fbdf760e01b815260006004820152602401610243565b6106f481610724565b50565b6000546001600160a01b0316331461068a5760405163118cdaa760e01b8152336004820152602401610243565b600080546001600160a01b038381166001600160a01b0319831681178455604051919092169283917f8be0079c531659141344cd1fd0a4f28419497f9722a3daafe3b4186f6b6457e09190a35050565b80356001600160a01b038116811461078b57600080fd5b919050565b6000602082840312156107a257600080fd5b6107ab82610774565b9392505050565b600060e082019050825182526020830151602083015260408301511515604083015260608301511515606083015260808301511515608083015260a083015160a083015260c083015160c083015292915050565b60008083601f84011261081857600080fd5b50813567ffffffffffffffff81111561083057600080fd5b60208301915083602082850101111561084857600080fd5b9250929050565b60008060006040848603121561086457600080fd5b61086d84610774565b9250602084013567ffffffffffffffff81111561088957600080fd5b61089586828701610806565b9497909650939450505050565b80356001600160e01b03198116811461078b57600080fd5b600080600080606085870312156108d057600080fd5b6108d985610774565b93506108e7602086016108a2565b9250604085013567ffffffffffffffff81111561090357600080fd5b61090f87828801610806565b95989497509550505050565b8051825260006020808301518185015260408301516040850152606083015115156060850152608083015160a0608086015280518060a087015260005b818110156109745782810184015187820160c001528301610958565b50600060c0828801015260c0601f19601f830116870101935050505092915050565b6020815260006107ab602083018461091b565b600080604083850312156109bc57600080fd5b50508035926020909101359150565b600080604083850312156109de57600080fd5b6109e783610774565b91506109f5602084016108a2565b90509250929050565b634e487b7160e01b600052601160045260246000fd5b8082028115828204841417610672576106726109fe565b80820180821115610672576106726109fe565b600082610a5b57634e487b7160e01b600052601260045260246000fd5b500490565b8183823760009101908152919050565b6001600160a01b03841681526040602082018190528101829052818360608301376000818301606090810191909152601f909201601f1916010192915050565b600060033d1115610ac95760046000803e5060005160e01c5b90565b601f8201601f1916810167ffffffffffffffff81118282101715610b0057634e487b7160e01b600052604160045260246000fd5b6040525050565b600060443d1015610b155790565b6040516003193d81016004833e81513d67ffffffffffffffff8160248401118184111715610b4557505050505090565b8285019150815181811115610b5d5750505050505090565b843d8701016020828501011115610b775750505050505090565b610b8660208286010187610acc565b509095945050505050565b63ffffffff60e01b83168152604060208201526000610bb3604083018461091b565b94935050505056fe556e6b6e6f776e206572726f7220647572696e672067617320657374696d6174696f6ea2646970667358221220dc15e5f5ca12992f39d8df2f8a02b01aa12777f4be13575717d53c6f0ba9236e64736f6c63430008140033",
  "linkReferences": {},
  "deployedLinkReferences": {}
}