{
  "_format": "hh-sol-artifact-1",
  "contractName": "DeFiUtils",
  "sourceName": "contracts/DeFiUtils.sol",
  "abi": [
    {
      "inputs": [],
      "stateMutability": "nonpayable",
      "type": "constructor"
    },
    {
      "inputs": [
        {
          "internalType": "address",
          "name": "owner",
          "type": "address"
        }
      ],
      "name": "OwnableInvalidOwner",
      "type": "error"
    },
    {
      "inputs": [
        {
          "internalType": "address",
          "name": "account",
          "type": "address"
        }
      ],
      "name": "OwnableUnauthorizedAccount",
      "type": "error"
    },
    {
      "anonymous": false,
      "inputs": [
        {
          "indexed": false,
          "internalType": "uint256",
          "name": "tokenAAmount",
          "type": "uint256"
        },
        {
          "indexed": false,
          "internalType": "uint256",
          "name": "tokenBAmount",
          "type": "uint256"
        },
        {
          "indexed": false,
          "internalType": "uint256",
          "name": "liquidityTokens",
          "type": "uint256"
        },
        {
          "indexed": false,
          "internalType": "uint256",
          "name": "fee",
          "type": "uint256"
        }
      ],
      "name": "LiquidityCalculated",
      "type": "event"
    },
    {
      "anonymous": false,
      "inputs": [
        {
          "indexed": true,
          "internalType": "address",
          "name": "previousOwner",
          "type": "address"
        },
        {
          "indexed": true,
          "internalType": "address",
          "name": "newOwner",
          "type": "address"
        }
      ],
      "name": "OwnershipTransferred",
      "type": "event"
    },
    {
      "anonymous": false,
      "inputs": [
        {
          "indexed": false,
          "internalType": "uint256",
          "name": "principal",
          "type": "uint256"
        },
        {
          "indexed": false,
          "internalType": "uint256",
          "name": "rate",
          "type": "uint256"
        },
        {
          "indexed": false,
          "internalType": "uint256",
          "name": "time",
          "type": "uint256"
        },
        {
          "indexed": false,
          "internalType": "uint256",
          "name": "yield",
          "type": "uint256"
        }
      ],
      "name": "YieldCalculated",
      "type": "event"
    },
    {
      "inputs": [],
      "name": "PRECISION",
      "outputs": [
        {
          "internalType": "uint256",
          "name": "",
          "type": "uint256"
        }
      ],
      "stateMutability": "view",
      "type": "function"
    },
    {
      "inputs": [],
      "name": "YEAR_IN_SECONDS",
      "outputs": [
        {
          "internalType": "uint256",
          "name": "",
          "type": "uint256"
        }
      ],
      "stateMutability": "view",
      "type": "function"
    },
    {
      "inputs": [
        {
          "internalType": "uint256",
          "name": "principal",
          "type": "uint256"
        },
        {
          "internalType": "uint256",
          "name": "rate",
          "type": "uint256"
        },
        {
          "internalType": "uint256",
          "name": "time",
          "type": "uint256"
        },
        {
          "internalType": "uint256",
          "name": "compoundFrequency",
          "type": "uint256"
        }
      ],
      "name": "calculateCompoundYield",
      "outputs": [
        {
          "internalType": "uint256",
          "name": "yield",
          "type": "uint256"
        }
      ],
      "stateMutability": "pure",
      "type": "function"
    },
    {
      "inputs": [
        {
          "internalType": "uint256",
          "name": "initialTokenAAmount",
          "type": "uint256"
        },
        {
          "internalType": "uint256",
          "name": "initialTokenBAmount",
          "type": "uint256"
        },
        {
          "internalType": "uint256",
          "name": "currentTokenAPrice",
          "type": "uint256"
        },
        {
          "internalType": "uint256",
          "name": "currentTokenBPrice",
          "type": "uint256"
        }
      ],
      "name": "calculateImpermanentLoss",
      "outputs": [
        {
          "internalType": "uint256",
          "name": "lossPercentage",
          "type": "uint256"
        }
      ],
      "stateMutability": "pure",
      "type": "function"
    },
    {
      "inputs": [
        {
          "internalType": "uint256",
          "name": "tokenAAmount",
          "type": "uint256"
        },
        {
          "internalType": "uint256",
          "name": "tokenBAmount",
          "type": "uint256"
        }
      ],
      "name": "calculateLiquidityTokens",
      "outputs": [
        {
          "internalType": "uint256",
          "name": "liquidityTokens",
          "type": "uint256"
        }
      ],
      "stateMutability": "pure",
      "type": "function"
    },
    {
      "inputs": [
        {
          "internalType": "uint256",
          "name": "tokenAPrice",
          "type": "uint256"
        },
        {
          "internalType": "uint256",
          "name": "tokenBPrice",
          "type": "uint256"
        },
        {
          "internalType": "uint256",
          "name": "totalValue",
          "type": "uint256"
        }
      ],
      "name": "calculateOptimalAmounts",
      "outputs": [
        {
          "internalType": "uint256",
          "name": "tokenAAmount",
          "type": "uint256"
        },
        {
          "internalType": "uint256",
          "name": "tokenBAmount",
          "type": "uint256"
        }
      ],
      "stateMutability": "pure",
      "type": "function"
    },
    {
      "inputs": [
        {
          "internalType": "uint256",
          "name": "principal",
          "type": "uint256"
        },
        {
          "internalType": "uint256",
          "name": "rate",
          "type": "uint256"
        },
        {
          "internalType": "uint256",
          "name": "time",
          "type": "uint256"
        }
      ],
      "name": "calculateSimpleYield",
      "outputs": [
        {
          "internalType": "uint256",
          "name": "yield",
          "type": "uint256"
        }
      ],
      "stateMutability": "pure",
      "type": "function"
    },
    {
      "inputs": [
        {
          "internalType": "uint256",
          "name": "inputAmount",
          "type": "uint256"
        },
        {
          "internalType": "uint256",
          "name": "outputAmount",
          "type": "uint256"
        },
        {
          "internalType": "uint256",
          "name": "expectedOutput",
          "type": "uint256"
        }
      ],
      "name": "calculateSlippage",
      "outputs": [
        {
          "internalType": "uint256",
          "name": "slippagePercentage",
          "type": "uint256"
        }
      ],
      "stateMutability": "pure",
      "type": "function"
    },
    {
      "inputs": [
        {
          "internalType": "uint256",
          "name": "amount",
          "type": "uint256"
        },
        {
          "internalType": "uint256",
          "name": "feeRate",
          "type": "uint256"
        }
      ],
      "name": "calculateSwapFee",
      "outputs": [
        {
          "internalType": "uint256",
          "name": "fee",
          "type": "uint256"
        }
      ],
      "stateMutability": "pure",
      "type": "function"
    },
    {
      "inputs": [],
      "name": "owner",
      "outputs": [
        {
          "internalType": "address",
          "name": "",
          "type": "address"
        }
      ],
      "stateMutability": "view",
      "type": "function"
    },
    {
      "inputs": [],
      "name": "renounceOwnership",
      "outputs": [],
      "stateMutability": "nonpayable",
      "type": "function"
    },
    {
      "inputs": [
        {
          "internalType": "address",
          "name": "newOwner",
          "type": "address"
        }
      ],
      "name": "transferOwnership",
      "outputs": [],
      "stateMutability": "nonpayable",
      "type": "function"
    }
  ],
  "bytecode": "0x608060405234801561001057600080fd5b50338061003757604051631e4fbdf760e01b81526000600482015260240160405180910390fd5b61004081610046565b50610096565b600080546001600160a01b038381166001600160a01b0319831681178455604051919092169283917f8be0079c531659141344cd1fd0a4f28419497f9722a3daafe3b4186f6b6457e09190a35050565b610deb806100a56000396000f3fe608060405234801561001057600080fd5b50600436106100b45760003560e01c80638f90d210116100715780638f90d21014610135578063aaf5eb681461015d578063d35178b71461016c578063d3d8723b1461017f578063dd012ee914610192578063f2fde38b146101a557600080fd5b8063359ab2a4146100b957806370c96009146100df578063715018a6146100f25780637847ea53146100fc5780637cf185bc146101075780638da5cb5b1461011a575b600080fd5b6100cc6100c7366004610c68565b6101b8565b6040519081526020015b60405180910390f35b6100cc6100ed366004610c8a565b610284565b6100fa6103e4565b005b6100cc6301e1338081565b6100cc610115366004610cbc565b6103f8565b6000546040516001600160a01b0390911681526020016100d6565b610148610143366004610cbc565b610552565b604080519283526020830191909152016100d6565b6100cc670de0b6b3a764000081565b6100cc61017a366004610c68565b610662565b6100cc61018d366004610c8a565b6106d1565b6100cc6101a0366004610cbc565b6108ed565b6100fa6101b3366004610ce8565b610a1b565b600080831161020e5760405162461bcd60e51b815260206004820152601d60248201527f416d6f756e74206d7573742062652067726561746572207468616e203000000060448201526064015b60405180910390fd5b6000821161025e5760405162461bcd60e51b815260206004820152601f60248201527f4665652072617465206d7573742062652067726561746572207468616e2030006044820152606401610205565b670de0b6b3a76400006102718385610d27565b61027b9190610d54565b90505b92915050565b600080851180156102955750600084115b6102f05760405162461bcd60e51b815260206004820152602660248201527f496e697469616c20616d6f756e7473206d75737420626520677265617465722060448201526507468616e20360d41b6064820152608401610205565b6000831180156103005750600082115b61035a5760405162461bcd60e51b815260206004820152602560248201527f43757272656e7420707269636573206d75737420626520677265617465722074604482015264068616e20360dc1b6064820152608401610205565b60006103668386610d27565b6103708588610d27565b61037a9190610d76565b905060006103888487610d27565b6103928689610d27565b61039c9190610d76565b9050818111156103d55780670de0b6b3a76400006103ba8483610d89565b6103c49190610d27565b6103ce9190610d54565b92506103da565b600092505b5050949350505050565b6103ec610a59565b6103f66000610a86565b565b60008084116104555760405162461bcd60e51b815260206004820152602360248201527f496e70757420616d6f756e74206d75737420626520677265617465722074686160448201526206e20360ec1b6064820152608401610205565b600083116104b15760405162461bcd60e51b8152602060048201526024808201527f4f757470757420616d6f756e74206d75737420626520677265617465722074686044820152630616e20360e41b6064820152608401610205565b600082116105105760405162461bcd60e51b815260206004820152602660248201527f4578706563746564206f7574707574206d75737420626520677265617465722060448201526507468616e20360d41b6064820152608401610205565b828211156105475781670de0b6b3a764000061052c8583610d89565b6105369190610d27565b6105409190610d54565b905061054b565b5060005b9392505050565b6000806000851180156105655750600084115b6105b15760405162461bcd60e51b815260206004820152601d60248201527f507269636573206d7573742062652067726561746572207468616e20300000006044820152606401610205565b6000831161060c5760405162461bcd60e51b815260206004820152602260248201527f546f74616c2076616c7565206d7573742062652067726561746572207468616e604482015261020360f41b6064820152608401610205565b6000610619600285610d54565b90508561062e670de0b6b3a764000083610d27565b6106389190610d54565b92508461064d670de0b6b3a764000083610d27565b6106579190610d54565b915050935093915050565b600080831180156106735750600082115b6106bf5760405162461bcd60e51b815260206004820152601e60248201527f416d6f756e7473206d7573742062652067726561746572207468616e203000006044820152606401610205565b61027b6106cc8385610d27565b610ad6565b60008085116107225760405162461bcd60e51b815260206004820181905260248201527f5072696e636970616c206d7573742062652067726561746572207468616e20306044820152606401610205565b600084116107725760405162461bcd60e51b815260206004820152601b60248201527f52617465206d7573742062652067726561746572207468616e203000000000006044820152606401610205565b600083116107c25760405162461bcd60e51b815260206004820152601b60248201527f54696d65206d7573742062652067726561746572207468616e203000000000006044820152606401610205565b600082116108245760405162461bcd60e51b815260206004820152602960248201527f436f6d706f756e64206672657175656e6379206d75737420626520677265617460448201526806572207468616e20360bc1b6064820152608401610205565b8160006108356301e1338086610d54565b905060006108438388610d54565b61085590670de0b6b3a7640000610d76565b905060006108638385610d27565b9050670de0b6b3a764000060005b82811080156108805750606481105b156108b657670de0b6b3a76400006108988584610d27565b6108a29190610d54565b9150806108ae81610d9c565b915050610871565b5089670de0b6b3a76400006108cb8383610d27565b6108d59190610d54565b6108df9190610d89565b9a9950505050505050505050565b600080841161093e5760405162461bcd60e51b815260206004820181905260248201527f5072696e636970616c206d7573742062652067726561746572207468616e20306044820152606401610205565b6000831161098e5760405162461bcd60e51b815260206004820152601b60248201527f52617465206d7573742062652067726561746572207468616e203000000000006044820152606401610205565b600082116109de5760405162461bcd60e51b815260206004820152601b60248201527f54696d65206d7573742062652067726561746572207468616e203000000000006044820152606401610205565b6109f4670de0b6b3a76400006301e13380610d27565b826109ff8587610d27565b610a099190610d27565b610a139190610d54565b949350505050565b610a23610a59565b6001600160a01b038116610a4d57604051631e4fbdf760e01b815260006004820152602401610205565b610a5681610a86565b50565b6000546001600160a01b031633146103f65760405163118cdaa760e01b8152336004820152602401610205565b600080546001600160a01b038381166001600160a01b0319831681178455604051919092169283917f8be0079c531659141344cd1fd0a4f28419497f9722a3daafe3b4186f6b6457e09190a35050565b600081600003610ae857506000919050565b60006001610af584610bbe565b901c6001901b90506001818481610b0e57610b0e610d3e565b048201901c90506001818481610b2657610b26610d3e565b048201901c90506001818481610b3e57610b3e610d3e565b048201901c90506001818481610b5657610b56610d3e565b048201901c90506001818481610b6e57610b6e610d3e565b048201901c90506001818481610b8657610b86610d3e565b048201901c90506001818481610b9e57610b9e610d3e565b048201901c905061054b81828581610bb857610bb8610d3e565b04610c52565b600080608083901c15610bd357608092831c92015b604083901c15610be557604092831c92015b602083901c15610bf757602092831c92015b601083901c15610c0957601092831c92015b600883901c15610c1b57600892831c92015b600483901c15610c2d57600492831c92015b600283901c15610c3f57600292831c92015b600183901c1561027e5760010192915050565b6000818310610c61578161027b565b5090919050565b60008060408385031215610c7b57600080fd5b50508035926020909101359150565b60008060008060808587031215610ca057600080fd5b5050823594602084013594506040840135936060013592509050565b600080600060608486031215610cd157600080fd5b505081359360208301359350604090920135919050565b600060208284031215610cfa57600080fd5b81356001600160a01b038116811461054b57600080fd5b634e487b7160e01b600052601160045260246000fd5b808202811582820484141761027e5761027e610d11565b634e487b7160e01b600052601260045260246000fd5b600082610d7157634e487b7160e01b600052601260045260246000fd5b500490565b8082018082111561027e5761027e610d11565b8181038181111561027e5761027e610d11565b600060018201610dae57610dae610d11565b506001019056fea2646970667358221220dba3cfb2ea1736976bd7e2df52c379a717ee6a7aad06136b6f86c0275ec91f6f64736f6c63430008140033",
  "linkReferences": {},
  "deployedLinkReferences": {}
}