{
  "_format": "hh-sol-artifact-1",
  "contractName": "ERC20Factory",
  "sourceName": "contracts/ERC20Factory.sol",
  "abi": [
    {
      "inputs": [],
      "stateMutability": "nonpayable",
      "type": "constructor"
    },
    {
      "inputs": [
        {
          "internalType": "address",
          "name": "owner",
          "type": "address"
        }
      ],
      "name": "OwnableInvalidOwner",
      "type": "error"
    },
    {
      "inputs": [
        {
          "internalType": "address",
          "name": "account",
          "type": "address"
        }
      ],
      "name": "OwnableUnauthorizedAccount",
      "type": "error"
    },
    {
      "anonymous": false,
      "inputs": [
        {
          "indexed": true,
          "internalType": "address",
          "name": "previousOwner",
          "type": "address"
        },
        {
          "indexed": true,
          "internalType": "address",
          "name": "newOwner",
          "type": "address"
        }
      ],
      "name": "OwnershipTransferred",
      "type": "event"
    },
    {
      "anonymous": false,
      "inputs": [
        {
          "indexed": true,
          "internalType": "address",
          "name": "tokenAddress",
          "type": "address"
        },
        {
          "indexed": false,
          "internalType": "string",
          "name": "name",
          "type": "string"
        },
        {
          "indexed": false,
          "internalType": "string",
          "name": "symbol",
          "type": "string"
        },
        {
          "indexed": false,
          "internalType": "uint256",
          "name": "initialSupply",
          "type": "uint256"
        },
        {
          "indexed": false,
          "internalType": "uint8",
          "name": "decimals",
          "type": "uint8"
        },
        {
          "indexed": true,
          "internalType": "address",
          "name": "creator",
          "type": "address"
        }
      ],
      "name": "TokenCreated",
      "type": "event"
    },
    {
      "inputs": [
        {
          "internalType": "string",
          "name": "name",
          "type": "string"
        },
        {
          "internalType": "string",
          "name": "symbol",
          "type": "string"
        },
        {
          "internalType": "uint256",
          "name": "initialSupply",
          "type": "uint256"
        },
        {
          "internalType": "uint8",
          "name": "decimals",
          "type": "uint8"
        }
      ],
      "name": "createToken",
      "outputs": [
        {
          "internalType": "address",
          "name": "",
          "type": "address"
        }
      ],
      "stateMutability": "nonpayable",
      "type": "function"
    },
    {
      "inputs": [
        {
          "internalType": "uint256",
          "name": "",
          "type": "uint256"
        }
      ],
      "name": "createdTokens",
      "outputs": [
        {
          "internalType": "address",
          "name": "",
          "type": "address"
        }
      ],
      "stateMutability": "view",
      "type": "function"
    },
    {
      "inputs": [],
      "name": "getAllTokens",
      "outputs": [
        {
          "internalType": "address[]",
          "name": "",
          "type": "address[]"
        }
      ],
      "stateMutability": "view",
      "type": "function"
    },
    {
      "inputs": [],
      "name": "getTokenCount",
      "outputs": [
        {
          "internalType": "uint256",
          "name": "",
          "type": "uint256"
        }
      ],
      "stateMutability": "view",
      "type": "function"
    },
    {
      "inputs": [
        {
          "internalType": "address",
          "name": "creator",
          "type": "address"
        }
      ],
      "name": "getTokensByCreator",
      "outputs": [
        {
          "internalType": "address[]",
          "name": "",
          "type": "address[]"
        }
      ],
      "stateMutability": "view",
      "type": "function"
    },
    {
      "inputs": [],
      "name": "owner",
      "outputs": [
        {
          "internalType": "address",
          "name": "",
          "type": "address"
        }
      ],
      "stateMutability": "view",
      "type": "function"
    },
    {
      "inputs": [],
      "name": "renounceOwnership",
      "outputs": [],
      "stateMutability": "nonpayable",
      "type": "function"
    },
    {
      "inputs": [
        {
          "internalType": "address",
          "name": "",
          "type": "address"
        }
      ],
      "name": "tokenCreators",
      "outputs": [
        {
          "internalType": "address",
          "name": "",
          "type": "address"
        }
      ],
      "stateMutability": "view",
      "type": "function"
    },
    {
      "inputs": [
        {
          "internalType": "address",
          "name": "newOwner",
          "type": "address"
        }
      ],
      "name": "transferOwnership",
      "outputs": [],
      "stateMutability": "nonpayable",
      "type": "function"
    }
  ],
  "bytecode": "0x608060405234801561001057600080fd5b50338061003757604051631e4fbdf760e01b81526000600482015260240160405180910390fd5b61004081610046565b50610096565b600080546001600160a01b038381166001600160a01b0319831681178455604051919092169283917f8be0079c531659141344cd1fd0a4f28419497f9722a3daafe3b4186f6b6457e09190a35050565b611a18806100a56000396000f3fe60806040523480156200001157600080fd5b50600436106200009f5760003560e01c8063b64acddd116200006e578063b64acddd146200010a578063ce7e8de81462000121578063d5c71275146200014d578063d782d6471462000164578063f2fde38b146200017b57600080fd5b80632a5c792a14620000a4578063715018a614620000c657806378a8956714620000d25780638da5cb5b14620000e4575b600080fd5b620000ae62000192565b604051620000bd9190620006bc565b60405180910390f35b620000d0620001f6565b005b600154604051908152602001620000bd565b6000546001600160a01b03165b6040516001600160a01b039091168152602001620000bd565b620000f16200011b366004620007b6565b6200020e565b620000f16200013236600462000844565b6002602052600090815260409020546001600160a01b031681565b620000ae6200015e36600462000844565b620003f5565b620000f16200017536600462000876565b620005c0565b620000d06200018c36600462000844565b620005eb565b60606001805480602002602001604051908101604052809291908181526020018280548015620001ec57602002820191906000526020600020905b81546001600160a01b03168152600190910190602001808311620001cd575b5050505050905090565b620002006200062f565b6200020c60006200065e565b565b6000808551116200025d5760405162461bcd60e51b81526020600482015260146024820152734e616d652063616e6e6f7420626520656d70747960601b60448201526064015b60405180910390fd5b6000845111620002a95760405162461bcd60e51b815260206004820152601660248201527553796d626f6c2063616e6e6f7420626520656d70747960501b604482015260640162000254565b60128260ff161115620002ff5760405162461bcd60e51b815260206004820152601960248201527f446563696d616c732063616e6e6f742065786365656420313800000000000000604482015260640162000254565b600085858585336040516200031490620006ae565b62000324959493929190620008d8565b604051809103906000f08015801562000341573d6000803e3d6000fd5b50600180548082019091557fb10e2d527612073b26eecdfd717e6a320cf44b4afac2b0732d9fcbe2b7fa0cf60180546001600160a01b03199081166001600160a01b038416908117909255600082815260026020526040908190208054339316831790555192935083929091907fafab5d1d74bae8c6b34c8932c5a93db45757bef8a5b14b76f11aa2cdd5cb9be590620003e3908b908b908b908b906200092b565b60405180910390a39695505050505050565b60606000805b6001548110156200048057836001600160a01b031660026000600184815481106200042a576200042a6200096f565b60009182526020808320909101546001600160a01b03908116845290830193909352604090910190205416036200046b5781620004678162000985565b9250505b80620004778162000985565b915050620003fb565b5060008167ffffffffffffffff8111156200049f576200049f6200070b565b604051908082528060200260200182016040528015620004c9578160200160208202803683370190505b5090506000805b600154811015620005b657856001600160a01b03166002600060018481548110620004ff57620004ff6200096f565b60009182526020808320909101546001600160a01b0390811684529083019390935260409091019020541603620005a157600181815481106200054657620005466200096f565b9060005260206000200160009054906101000a90046001600160a01b03168383815181106200057957620005796200096f565b6001600160a01b0390921660209283029190910190910152816200059d8162000985565b9250505b80620005ad8162000985565b915050620004d0565b5090949350505050565b60018181548110620005d157600080fd5b6000918252602090912001546001600160a01b0316905081565b620005f56200062f565b6001600160a01b0381166200062157604051631e4fbdf760e01b81526000600482015260240162000254565b6200062c816200065e565b50565b6000546001600160a01b031633146200020c5760405163118cdaa760e01b815233600482015260240162000254565b600080546001600160a01b038381166001600160a01b0319831681178455604051919092169283917f8be0079c531659141344cd1fd0a4f28419497f9722a3daafe3b4186f6b6457e09190a35050565b61103580620009ae83390190565b6020808252825182820181905260009190848201906040850190845b81811015620006ff5783516001600160a01b031683529284019291840191600101620006d8565b50909695505050505050565b634e487b7160e01b600052604160045260246000fd5b600082601f8301126200073357600080fd5b813567ffffffffffffffff808211156200075157620007516200070b565b604051601f8301601f19908116603f011681019082821181831017156200077c576200077c6200070b565b816040528381528660208588010111156200079657600080fd5b836020870160208301376000602085830101528094505050505092915050565b60008060008060808587031215620007cd57600080fd5b843567ffffffffffffffff80821115620007e657600080fd5b620007f48883890162000721565b955060208701359150808211156200080b57600080fd5b506200081a8782880162000721565b93505060408501359150606085013560ff811681146200083957600080fd5b939692955090935050565b6000602082840312156200085757600080fd5b81356001600160a01b03811681146200086f57600080fd5b9392505050565b6000602082840312156200088957600080fd5b5035919050565b6000815180845260005b81811015620008b8576020818501810151868301820152016200089a565b506000602082860101526020601f19601f83011685010191505092915050565b60a081526000620008ed60a083018862000890565b828103602084015262000901818862000890565b6040840196909652505060ff9290921660608301526001600160a01b031660809091015292915050565b60808152600062000940608083018762000890565b828103602084015262000954818762000890565b91505083604083015260ff8316606083015295945050505050565b634e487b7160e01b600052603260045260246000fd5b600060018201620009a657634e487b7160e01b600052601160045260246000fd5b506001019056fe60806040523480156200001157600080fd5b506040516200103538038062001035833981016040819052620000349162000362565b8085856003620000458382620004a1565b506004620000548282620004a1565b5050506001600160a01b0381166200008757604051631e4fbdf760e01b8152600060048201526024015b60405180910390fd5b6200009281620000da565b506005805460ff60a01b1916600160a01b60ff851602179055620000cf81620000bd84600a62000682565b620000c990866200069a565b6200012c565b5050505050620006ca565b600580546001600160a01b038381166001600160a01b0319831681179093556040519116919082907f8be0079c531659141344cd1fd0a4f28419497f9722a3daafe3b4186f6b6457e090600090a35050565b6001600160a01b038216620001585760405163ec442f0560e01b8152600060048201526024016200007e565b62000166600083836200016a565b5050565b6001600160a01b038316620001995780600260008282546200018d9190620006b4565b909155506200020d9050565b6001600160a01b03831660009081526020819052604090205481811015620001ee5760405163391434e360e21b81526001600160a01b038516600482015260248101829052604481018390526064016200007e565b6001600160a01b03841660009081526020819052604090209082900390555b6001600160a01b0382166200022b576002805482900390556200024a565b6001600160a01b03821660009081526020819052604090208054820190555b816001600160a01b0316836001600160a01b03167fddf252ad1be2c89b69c2b068fc378daa952ba7f163c4a11628f55a4df523b3ef836040516200029091815260200190565b60405180910390a3505050565b634e487b7160e01b600052604160045260246000fd5b600082601f830112620002c557600080fd5b81516001600160401b0380821115620002e257620002e26200029d565b604051601f8301601f19908116603f011681019082821181831017156200030d576200030d6200029d565b816040528381526020925086838588010111156200032a57600080fd5b600091505b838210156200034e57858201830151818301840152908201906200032f565b600093810190920192909252949350505050565b600080600080600060a086880312156200037b57600080fd5b85516001600160401b03808211156200039357600080fd5b620003a189838a01620002b3565b96506020880151915080821115620003b857600080fd5b50620003c788828901620002b3565b94505060408601519250606086015160ff81168114620003e657600080fd5b60808701519092506001600160a01b03811681146200040457600080fd5b809150509295509295909350565b600181811c908216806200042757607f821691505b6020821081036200044857634e487b7160e01b600052602260045260246000fd5b50919050565b601f8211156200049c57600081815260208120601f850160051c81016020861015620004775750805b601f850160051c820191505b81811015620004985782815560010162000483565b5050505b505050565b81516001600160401b03811115620004bd57620004bd6200029d565b620004d581620004ce845462000412565b846200044e565b602080601f8311600181146200050d5760008415620004f45750858301515b600019600386901b1c1916600185901b17855562000498565b600085815260208120601f198616915b828110156200053e578886015182559484019460019091019084016200051d565b50858210156200055d5787850151600019600388901b60f8161c191681555b5050505050600190811b01905550565b634e487b7160e01b600052601160045260246000fd5b600181815b80851115620005c4578160001904821115620005a857620005a86200056d565b80851615620005b657918102915b93841c939080029062000588565b509250929050565b600082620005dd575060016200067c565b81620005ec575060006200067c565b8160018114620006055760028114620006105762000630565b60019150506200067c565b60ff8411156200062457620006246200056d565b50506001821b6200067c565b5060208310610133831016604e8410600b841016171562000655575081810a6200067c565b62000661838362000583565b80600019048211156200067857620006786200056d565b0290505b92915050565b60006200069360ff841683620005cc565b9392505050565b80820281158282048414176200067c576200067c6200056d565b808201808211156200067c576200067c6200056d565b61095b80620006da6000396000f3fe608060405234801561001057600080fd5b50600436106100ea5760003560e01c806370a082311161008c57806395d89b411161006657806395d89b41146101e8578063a9059cbb146101f0578063dd62ed3e14610203578063f2fde38b1461023c57600080fd5b806370a082311461019c578063715018a6146101c55780638da5cb5b146101cd57600080fd5b806323b872dd116100c857806323b872dd14610142578063313ce5671461015557806340c10f191461017457806342966c681461018957600080fd5b806306fdde03146100ef578063095ea7b31461010d57806318160ddd14610130575b600080fd5b6100f761024f565b604051610104919061078c565b60405180910390f35b61012061011b3660046107f6565b6102e1565b6040519015158152602001610104565b6002545b604051908152602001610104565b610120610150366004610820565b6102fb565b600554600160a01b900460ff1660405160ff9091168152602001610104565b6101876101823660046107f6565b61031f565b005b61018761019736600461085c565b610335565b6101346101aa366004610875565b6001600160a01b031660009081526020819052604090205490565b610187610342565b6005546040516001600160a01b039091168152602001610104565b6100f7610356565b6101206101fe3660046107f6565b610365565b610134610211366004610897565b6001600160a01b03918216600090815260016020908152604080832093909416825291909152205490565b61018761024a366004610875565b610373565b60606003805461025e906108ca565b80601f016020809104026020016040519081016040528092919081815260200182805461028a906108ca565b80156102d75780601f106102ac576101008083540402835291602001916102d7565b820191906000526020600020905b8154815290600101906020018083116102ba57829003601f168201915b5050505050905090565b6000336102ef8185856103b3565b60019150505b92915050565b6000336103098582856103c5565b610314858585610443565b506001949350505050565b6103276104a2565b61033182826104cf565b5050565b61033f3382610505565b50565b61034a6104a2565b610354600061053b565b565b60606004805461025e906108ca565b6000336102ef818585610443565b61037b6104a2565b6001600160a01b0381166103aa57604051631e4fbdf760e01b8152600060048201526024015b60405180910390fd5b61033f8161053b565b6103c0838383600161058d565b505050565b6001600160a01b03838116600090815260016020908152604080832093861683529290522054600019811461043d578181101561042e57604051637dc7a0d960e11b81526001600160a01b038416600482015260248101829052604481018390526064016103a1565b61043d8484848403600061058d565b50505050565b6001600160a01b03831661046d57604051634b637e8f60e11b8152600060048201526024016103a1565b6001600160a01b0382166104975760405163ec442f0560e01b8152600060048201526024016103a1565b6103c0838383610662565b6005546001600160a01b031633146103545760405163118cdaa760e01b81523360048201526024016103a1565b6001600160a01b0382166104f95760405163ec442f0560e01b8152600060048201526024016103a1565b61033160008383610662565b6001600160a01b03821661052f57604051634b637e8f60e11b8152600060048201526024016103a1565b61033182600083610662565b600580546001600160a01b038381166001600160a01b0319831681179093556040519116919082907f8be0079c531659141344cd1fd0a4f28419497f9722a3daafe3b4186f6b6457e090600090a35050565b6001600160a01b0384166105b75760405163e602df0560e01b8152600060048201526024016103a1565b6001600160a01b0383166105e157604051634a1406b160e11b8152600060048201526024016103a1565b6001600160a01b038085166000908152600160209081526040808320938716835292905220829055801561043d57826001600160a01b0316846001600160a01b03167f8c5be1e5ebec7d5bd14f71427d1e84f3dd0314c0f7b2291e5b200ac8c7c3b9258460405161065491815260200190565b60405180910390a350505050565b6001600160a01b03831661068d5780600260008282546106829190610904565b909155506106ff9050565b6001600160a01b038316600090815260208190526040902054818110156106e05760405163391434e360e21b81526001600160a01b038516600482015260248101829052604481018390526064016103a1565b6001600160a01b03841660009081526020819052604090209082900390555b6001600160a01b03821661071b5760028054829003905561073a565b6001600160a01b03821660009081526020819052604090208054820190555b816001600160a01b0316836001600160a01b03167fddf252ad1be2c89b69c2b068fc378daa952ba7f163c4a11628f55a4df523b3ef8360405161077f91815260200190565b60405180910390a3505050565b600060208083528351808285015260005b818110156107b95785810183015185820160400152820161079d565b506000604082860101526040601f19601f8301168501019250505092915050565b80356001600160a01b03811681146107f157600080fd5b919050565b6000806040838503121561080957600080fd5b610812836107da565b946020939093013593505050565b60008060006060848603121561083557600080fd5b61083e846107da565b925061084c602085016107da565b9150604084013590509250925092565b60006020828403121561086e57600080fd5b5035919050565b60006020828403121561088757600080fd5b610890826107da565b9392505050565b600080604083850312156108aa57600080fd5b6108b3836107da565b91506108c1602084016107da565b90509250929050565b600181811c908216806108de57607f821691505b6020821081036108fe57634e487b7160e01b600052602260045260246000fd5b50919050565b808201808211156102f557634e487b7160e01b600052601160045260246000fdfea26469706673582212206063366bb08f97d45fedbdc79c9bf7cb81a68de0618e6f1143ffdfcf8252623764736f6c63430008140033a264697066735822122065abe6c2d78583cda50321400e06cf5459d08cb94efe15b2574307b9db038db264736f6c63430008140033",
  "linkReferences": {},
  "deployedLinkReferences": {}
}