{
  "_format": "hh-sol-artifact-1",
  "contractName": "MerkleProofValidator",
  "sourceName": "contracts/MerkleValidator.sol",
  "abi": [
    {
      "inputs": [],
      "stateMutability": "nonpayable",
      "type": "constructor"
    },
    {
      "inputs": [
        {
          "internalType": "address",
          "name": "owner",
          "type": "address"
        }
      ],
      "name": "OwnableInvalidOwner",
      "type": "error"
    },
    {
      "inputs": [
        {
          "internalType": "address",
          "name": "account",
          "type": "address"
        }
      ],
      "name": "OwnableUnauthorizedAccount",
      "type": "error"
    },
    {
      "anonymous": false,
      "inputs": [
        {
          "indexed": true,
          "internalType": "bytes32",
          "name": "merkleRoot",
          "type": "bytes32"
        },
        {
          "indexed": false,
          "internalType": "string",
          "name": "description",
          "type": "string"
        },
        {
          "indexed": false,
          "internalType": "address",
          "name": "creator",
          "type": "address"
        }
      ],
      "name": "MerkleRootRegistered",
      "type": "event"
    },
    {
      "anonymous": false,
      "inputs": [
        {
          "indexed": true,
          "internalType": "address",
          "name": "previousOwner",
          "type": "address"
        },
        {
          "indexed": true,
          "internalType": "address",
          "name": "newOwner",
          "type": "address"
        }
      ],
      "name": "OwnershipTransferred",
      "type": "event"
    },
    {
      "anonymous": false,
      "inputs": [
        {
          "indexed": true,
          "internalType": "bytes32",
          "name": "merkleRoot",
          "type": "bytes32"
        },
        {
          "indexed": true,
          "internalType": "address",
          "name": "user",
          "type": "address"
        },
        {
          "indexed": false,
          "internalType": "bool",
          "name": "isValid",
          "type": "bool"
        }
      ],
      "name": "ProofValidated",
      "type": "event"
    },
    {
      "inputs": [
        {
          "internalType": "address",
          "name": "addr",
          "type": "address"
        }
      ],
      "name": "getLeaf",
      "outputs": [
        {
          "internalType": "bytes32",
          "name": "",
          "type": "bytes32"
        }
      ],
      "stateMutability": "pure",
      "type": "function"
    },
    {
      "inputs": [
        {
          "internalType": "bytes32",
          "name": "merkleRoot",
          "type": "bytes32"
        }
      ],
      "name": "getValidationStats",
      "outputs": [
        {
          "internalType": "string",
          "name": "description",
          "type": "string"
        },
        {
          "internalType": "address",
          "name": "creator",
          "type": "address"
        },
        {
          "internalType": "uint256",
          "name": "timestamp",
          "type": "uint256"
        },
        {
          "internalType": "uint256",
          "name": "validationCount",
          "type": "uint256"
        },
        {
          "internalType": "bool",
          "name": "isActive",
          "type": "bool"
        }
      ],
      "stateMutability": "view",
      "type": "function"
    },
    {
      "inputs": [],
      "name": "owner",
      "outputs": [
        {
          "internalType": "address",
          "name": "",
          "type": "address"
        }
      ],
      "stateMutability": "view",
      "type": "function"
    },
    {
      "inputs": [
        {
          "internalType": "bytes32",
          "name": "merkleRoot",
          "type": "bytes32"
        },
        {
          "internalType": "string",
          "name": "description",
          "type": "string"
        }
      ],
      "name": "registerMerkleRoot",
      "outputs": [],
      "stateMutability": "nonpayable",
      "type": "function"
    },
    {
      "inputs": [],
      "name": "renounceOwnership",
      "outputs": [],
      "stateMutability": "nonpayable",
      "type": "function"
    },
    {
      "inputs": [
        {
          "internalType": "bytes32",
          "name": "merkleRoot",
          "type": "bytes32"
        },
        {
          "internalType": "bool",
          "name": "isActive",
          "type": "bool"
        }
      ],
      "name": "setMerkleRootStatus",
      "outputs": [],
      "stateMutability": "nonpayable",
      "type": "function"
    },
    {
      "inputs": [
        {
          "internalType": "address",
          "name": "newOwner",
          "type": "address"
        }
      ],
      "name": "transferOwnership",
      "outputs": [],
      "stateMutability": "nonpayable",
      "type": "function"
    },
    {
      "inputs": [
        {
          "internalType": "bytes32",
          "name": "merkleRoot",
          "type": "bytes32"
        },
        {
          "internalType": "bytes32[]",
          "name": "proof",
          "type": "bytes32[]"
        },
        {
          "internalType": "bytes32",
          "name": "leaf",
          "type": "bytes32"
        }
      ],
      "name": "validateProof",
      "outputs": [
        {
          "internalType": "bool",
          "name": "",
          "type": "bool"
        }
      ],
      "stateMutability": "nonpayable",
      "type": "function"
    },
    {
      "inputs": [
        {
          "internalType": "bytes32",
          "name": "merkleRoot",
          "type": "bytes32"
        },
        {
          "internalType": "bytes32[]",
          "name": "proof",
          "type": "bytes32[]"
        },
        {
          "internalType": "bytes32",
          "name": "leaf",
          "type": "bytes32"
        }
      ],
      "name": "validateProofView",
      "outputs": [
        {
          "internalType": "bool",
          "name": "",
          "type": "bool"
        }
      ],
      "stateMutability": "view",
      "type": "function"
    },
    {
      "inputs": [
        {
          "internalType": "bytes32",
          "name": "",
          "type": "bytes32"
        }
      ],
      "name": "validationData",
      "outputs": [
        {
          "internalType": "string",
          "name": "description",
          "type": "string"
        },
        {
          "internalType": "address",
          "name": "creator",
          "type": "address"
        },
        {
          "internalType": "uint256",
          "name": "timestamp",
          "type": "uint256"
        },
        {
          "internalType": "uint256",
          "name": "validationCount",
          "type": "uint256"
        },
        {
          "internalType": "bool",
          "name": "isActive",
          "type": "bool"
        }
      ],
      "stateMutability": "view",
      "type": "function"
    }
  ],
  "bytecode": "0x608060405234801561001057600080fd5b50338061003757604051631e4fbdf760e01b81526000600482015260240160405180910390fd5b61004081610046565b50610096565b600080546001600160a01b038381166001600160a01b0319831681178455604051919092169283917f8be0079c531659141344cd1fd0a4f28419497f9722a3daafe3b4186f6b6457e09190a35050565b610cd0806100a56000396000f3fe608060405234801561001057600080fd5b506004361061009e5760003560e01c80638da5cb5b116100665780638da5cb5b1461012357806398687ef01461013e578063cbeca65314610151578063d7f2c7e6146101ac578063f2fde38b146101bf57600080fd5b80630f09c7ef146100a3578063490d67b0146100b857806360de9b60146100e55780636e1021e714610108578063715018a61461011b575b600080fd5b6100b66100b13660046108c4565b6101d2565b005b6100cb6100c6366004610940565b610354565b6040516100dc959493929190610959565b60405180910390f35b6100f86100f33660046109da565b610418565b60405190151581526020016100dc565b6100cb610116366004610940565b610463565b6100b6610586565b6000546040516001600160a01b0390911681526020016100dc565b6100f861014c3660046109da565b61059a565b61019e61015f366004610a5f565b6040516bffffffffffffffffffffffff19606083901b166020820152600090603401604051602081830303815290604052805190602001209050919050565b6040519081526020016100dc565b6100b66101ba366004610a88565b6106b3565b6100b66101cd366004610a5f565b610774565b600083815260016020819052604090912001546001600160a01b0316156102405760405162461bcd60e51b815260206004820152601e60248201527f4d65726b6c6520726f6f7420616c72656164792072656769737465726564000060448201526064015b60405180910390fd5b6040518060a0016040528083838080601f01602080910402602001604051908101604052809392919081815260200183838082843760009201829052509385525050336020808501919091524260408086019190915260608501849052600160809095018590528884529390525020815181906102bd9082610b5c565b5060208201516001820180546001600160a01b0319166001600160a01b039092169190911790556040808301516002830155606083015160038301556080909201516004909101805460ff19169115159190911790555183907f539c0a16f43b6250480dc0b416b46d54434c4eb893affeae00ea5a81fecd9d1d9061034790859085903390610c1c565b60405180910390a2505050565b60016020526000908152604090208054819061036f90610ad3565b80601f016020809104026020016040519081016040528092919081815260200182805461039b90610ad3565b80156103e85780601f106103bd576101008083540402835291602001916103e8565b820191906000526020600020905b8154815290600101906020018083116103cb57829003601f168201915b5050505060018301546002840154600385015460049095015493946001600160a01b039092169390925060ff1685565b600061045a8484808060200260200160405190810160405280939291908181526020018383602002808284376000920191909152508992508691506107b29050565b95945050505050565b60606000806000806000600160008881526020019081526020016000206040518060a001604052908160008201805461049b90610ad3565b80601f01602080910402602001604051908101604052809291908181526020018280546104c790610ad3565b80156105145780601f106104e957610100808354040283529160200191610514565b820191906000526020600020905b8154815290600101906020018083116104f757829003601f168201915b505050918352505060018201546001600160a01b03166020808301919091526002830154604080840191909152600384015460608085019190915260049094015460ff16151560809384015284519185015190850151938501519490920151909b919a50919850919650945092505050565b61058e6107c8565b61059860006107f5565b565b60008481526001602052604081206004015460ff1661060a5760405162461bcd60e51b815260206004820152602660248201527f4d65726b6c6520726f6f74206e6f742072656769737465726564206f7220696e60448201526561637469766560d01b6064820152608401610237565b600061064c8585808060200260200160405190810160405280939291908181526020018383602002808284376000920191909152508a92508791506107b29050565b600087815260016020526040812060030180549293509061066c83610c5d565b90915550506040518115158152339087907f6a51e34ade11888216f1cce0771436c2e2e7bc4b8f80d489e4a9b52c3e8c24e49060200160405180910390a395945050505050565b600082815260016020819052604090912001546001600160a01b03163314806106f55750336106ea6000546001600160a01b031690565b6001600160a01b0316145b6107515760405162461bcd60e51b815260206004820152602760248201527f4f6e6c792063726561746f72206f72206f776e65722063616e207570646174656044820152662073746174757360c81b6064820152608401610237565b600091825260016020526040909120600401805460ff1916911515919091179055565b61077c6107c8565b6001600160a01b0381166107a657604051631e4fbdf760e01b815260006004820152602401610237565b6107af816107f5565b50565b6000826107bf8584610845565b14949350505050565b6000546001600160a01b031633146105985760405163118cdaa760e01b8152336004820152602401610237565b600080546001600160a01b038381166001600160a01b0319831681178455604051919092169283917f8be0079c531659141344cd1fd0a4f28419497f9722a3daafe3b4186f6b6457e09190a35050565b600081815b845181101561088a576108768286838151811061086957610869610c84565b6020026020010151610892565b91508061088281610c5d565b91505061084a565b509392505050565b60008183106108ae5760008281526020849052604090206108bd565b60008381526020839052604090205b9392505050565b6000806000604084860312156108d957600080fd5b83359250602084013567ffffffffffffffff808211156108f857600080fd5b818601915086601f83011261090c57600080fd5b81358181111561091b57600080fd5b87602082850101111561092d57600080fd5b6020830194508093505050509250925092565b60006020828403121561095257600080fd5b5035919050565b60a08152600086518060a084015260005b81811015610987576020818a0181015160c086840101520161096a565b50600060c0828501015260c0601f19601f8301168401019150506109b660208301876001600160a01b03169052565b8460408301528360608301526109d0608083018415159052565b9695505050505050565b600080600080606085870312156109f057600080fd5b84359350602085013567ffffffffffffffff80821115610a0f57600080fd5b818701915087601f830112610a2357600080fd5b813581811115610a3257600080fd5b8860208260051b8501011115610a4757600080fd5b95986020929092019750949560400135945092505050565b600060208284031215610a7157600080fd5b81356001600160a01b03811681146108bd57600080fd5b60008060408385031215610a9b57600080fd5b8235915060208301358015158114610ab257600080fd5b809150509250929050565b634e487b7160e01b600052604160045260246000fd5b600181811c90821680610ae757607f821691505b602082108103610b0757634e487b7160e01b600052602260045260246000fd5b50919050565b601f821115610b5757600081815260208120601f850160051c81016020861015610b345750805b601f850160051c820191505b81811015610b5357828155600101610b40565b5050505b505050565b815167ffffffffffffffff811115610b7657610b76610abd565b610b8a81610b848454610ad3565b84610b0d565b602080601f831160018114610bbf5760008415610ba75750858301515b600019600386901b1c1916600185901b178555610b53565b600085815260208120601f198616915b82811015610bee57888601518255948401946001909101908401610bcf565b5085821015610c0c5787850151600019600388901b60f8161c191681555b5050505050600190811b01905550565b6040815282604082015282846060830137600060608483018101919091526001600160a01b03929092166020820152601f909201601f191690910101919050565b600060018201610c7d57634e487b7160e01b600052601160045260246000fd5b5060010190565b634e487b7160e01b600052603260045260246000fdfea26469706673582212209301bdfb0f459776cec6b1f6e8c51a274fa5234e7d989986b2d233690a9159f064736f6c63430008140033",
  "linkReferences": {},
  "deployedLinkReferences": {}
}